{
  "contractName": "myContract",
  "abi": [
    {
      "inputs": [],
      "stateMutability": "nonpayable",
      "type": "constructor"
    },
    {
      "anonymous": false,
      "inputs": [
        {
          "indexed": false,
          "internalType": "uint256",
          "name": "id",
          "type": "uint256"
        },
        {
          "indexed": false,
          "internalType": "uint256",
          "name": "approvals",
          "type": "uint256"
        },
        {
          "indexed": false,
          "internalType": "address",
          "name": "approver",
          "type": "address"
        }
      ],
      "name": "approvalReceived",
      "type": "event"
    },
    {
      "anonymous": false,
      "inputs": [
        {
          "indexed": false,
          "internalType": "uint256",
          "name": "id",
          "type": "uint256"
        }
      ],
      "name": "transferApproved",
      "type": "event"
    },
    {
      "anonymous": false,
      "inputs": [
        {
          "indexed": false,
          "internalType": "uint256",
          "name": "_id",
          "type": "uint256"
        },
        {
          "indexed": false,
          "internalType": "uint256",
          "name": "_amount",
          "type": "uint256"
        },
        {
          "indexed": false,
          "internalType": "address",
          "name": "initiator",
          "type": "address"
        },
        {
          "indexed": false,
          "internalType": "address",
          "name": "recipient",
          "type": "address"
        }
      ],
      "name": "transferRequestCreated",
      "type": "event"
    },
    {
      "inputs": [
        {
          "internalType": "address",
          "name": "member",
          "type": "address"
        }
      ],
      "name": "addOwner",
      "outputs": [],
      "stateMutability": "nonpayable",
      "type": "function"
    },
    {
      "inputs": [],
      "name": "NumOfOwners",
      "outputs": [
        {
          "internalType": "uint256",
          "name": "",
          "type": "uint256"
        }
      ],
      "stateMutability": "view",
      "type": "function",
      "constant": true
    },
    {
      "inputs": [],
      "name": "deposit",
      "outputs": [
        {
          "internalType": "uint256",
          "name": "",
          "type": "uint256"
        }
      ],
      "stateMutability": "payable",
      "type": "function",
      "payable": true
    },
    {
      "inputs": [],
      "name": "getMyBalance",
      "outputs": [
        {
          "internalType": "uint256",
          "name": "",
          "type": "uint256"
        }
      ],
      "stateMutability": "view",
      "type": "function",
      "constant": true
    },
    {
      "inputs": [],
      "name": "getSCBalance",
      "outputs": [
        {
          "internalType": "uint256",
          "name": "",
          "type": "uint256"
        }
      ],
      "stateMutability": "view",
      "type": "function",
      "constant": true
    },
    {
      "inputs": [
        {
          "internalType": "address payable",
          "name": "sendTo",
          "type": "address"
        },
        {
          "internalType": "uint256",
          "name": "valueToSend",
          "type": "uint256"
        }
      ],
      "name": "createTransferReq",
      "outputs": [
        {
          "internalType": "uint256",
          "name": "",
          "type": "uint256"
        }
      ],
      "stateMutability": "nonpayable",
      "type": "function"
    },
    {
      "inputs": [
        {
          "internalType": "uint256",
          "name": "id",
          "type": "uint256"
        }
      ],
      "name": "approveRequest",
      "outputs": [],
      "stateMutability": "nonpayable",
      "type": "function"
    },
    {
      "inputs": [],
      "name": "getNonApprovedTransactions",
      "outputs": [
        {
          "components": [
            {
              "internalType": "address payable",
              "name": "payTo",
              "type": "address"
            },
            {
              "internalType": "uint256",
              "name": "value",
              "type": "uint256"
            },
            {
              "internalType": "uint256",
              "name": "approvalAccumulated",
              "type": "uint256"
            },
            {
              "internalType": "bool",
              "name": "sent",
              "type": "bool"
            },
            {
              "internalType": "uint256",
              "name": "_transactionNumber",
              "type": "uint256"
            },
            {
              "internalType": "address",
              "name": "creator",
              "type": "address"
            }
          ],
          "internalType": "struct myContract.Transfers[]",
          "name": "",
          "type": "tuple[]"
        }
      ],
      "stateMutability": "view",
      "type": "function",
      "constant": true
    }
  ],
  "bytecode": "0x608060405234801561001057600080fd5b506001600360003373ffffffffffffffffffffffffffffffffffffffff1673ffffffffffffffffffffffffffffffffffffffff16815260200190815260200160002060006101000a81548160ff021916908315150217905550336000806101000a81548173ffffffffffffffffffffffffffffffffffffffff021916908373ffffffffffffffffffffffffffffffffffffffff160217905550611734806100b86000396000f3fe60806040526004361061007b5760003560e01c8063be75ac831161004e578063be75ac831461013c578063d0e30db014610167578063d7d1bbdb14610185578063e8f2485f146101ae5761007b565b806338327f4d146100805780634c738909146100ab5780637065cb48146100d6578063926a1aea146100ff575b600080fd5b34801561008c57600080fd5b506100956101d9565b6040516100a29190610de9565b60405180910390f35b3480156100b757600080fd5b506100c06101f3565b6040516100cd9190610de9565b60405180910390f35b3480156100e257600080fd5b506100fd60048036038101906100f89190610e67565b61023a565b005b34801561010b57600080fd5b5061012660048036038101906101219190610efe565b61033c565b6040516101339190610de9565b60405180910390f35b34801561014857600080fd5b50610151610597565b60405161015e9190610de9565b60405180910390f35b61016f610632565b60405161017c9190610de9565b60405180910390f35b34801561019157600080fd5b506101ac60048036038101906101a79190610f3e565b6106cf565b005b3480156101ba57600080fd5b506101c36109bc565b6040516101d091906110dd565b60405180910390f35b600080600180546101ea919061112e565b90508091505090565b6000600460003373ffffffffffffffffffffffffffffffffffffffff1673ffffffffffffffffffffffffffffffffffffffff16815260200190815260200160002054905090565b60008054906101000a900473ffffffffffffffffffffffffffffffffffffffff1673ffffffffffffffffffffffffffffffffffffffff163373ffffffffffffffffffffffffffffffffffffffff16146102c8576040517f08c379a00000000000000000000000000000000000000000000000000000000081526004016102bf90611207565b60405180910390fd5b6001600360008373ffffffffffffffffffffffffffffffffffffffff1673ffffffffffffffffffffffffffffffffffffffff16815260200190815260200160002060006101000a81548160ff0219169083151502179055506001806000828254610332919061112e565b9250508190555050565b60006001600460003373ffffffffffffffffffffffffffffffffffffffff1673ffffffffffffffffffffffffffffffffffffffff1681526020019081526020016000205410156103c1576040517f08c379a00000000000000000000000000000000000000000000000000000000081526004016103b890611299565b60405180910390fd5b81471015610404576040517f08c379a00000000000000000000000000000000000000000000000000000000081526004016103fb90611305565b60405180910390fd5b60006006600060025481526020019081526020016000209050838160000160006101000a81548173ffffffffffffffffffffffffffffffffffffffff021916908373ffffffffffffffffffffffffffffffffffffffff1602179055508281600101819055506000816002018190555060008160030160006101000a81548160ff0219169083151502179055506002548160040181905550338160050160006101000a81548173ffffffffffffffffffffffffffffffffffffffff021916908373ffffffffffffffffffffffffffffffffffffffff1602179055507f7e236617fd7b9511a0ff4fe97d8399d8271ec4b5b06ccfdd40165db4848dcb8b816004015482600101548360050160009054906101000a900473ffffffffffffffffffffffffffffffffffffffff168460000160009054906101000a900473ffffffffffffffffffffffffffffffffffffffff166040516105639493929190611393565b60405180910390a160006002549050600160026000828254610585919061112e565b92505081905550809250505092915050565b600060011515600360003373ffffffffffffffffffffffffffffffffffffffff1673ffffffffffffffffffffffffffffffffffffffff16815260200190815260200160002060009054906101000a900460ff1615151461062c576040517f08c379a00000000000000000000000000000000000000000000000000000000081526004016106239061144a565b60405180910390fd5b47905090565b600034600460003373ffffffffffffffffffffffffffffffffffffffff1673ffffffffffffffffffffffffffffffffffffffff1681526020019081526020016000206000828254610683919061112e565b92505081905550600460003373ffffffffffffffffffffffffffffffffffffffff1673ffffffffffffffffffffffffffffffffffffffff16815260200190815260200160002054905090565b60011515600360003373ffffffffffffffffffffffffffffffffffffffff1673ffffffffffffffffffffffffffffffffffffffff16815260200190815260200160002060009054906101000a900460ff16151514610762576040517f08c379a00000000000000000000000000000000000000000000000000000000081526004016107599061144a565b60405180910390fd5b60001515600560003373ffffffffffffffffffffffffffffffffffffffff1673ffffffffffffffffffffffffffffffffffffffff168152602001908152602001600020600083815260200190815260200160002060009054906101000a900460ff16151514610806576040517f08c379a00000000000000000000000000000000000000000000000000000000081526004016107fd906114dc565b60405180910390fd5b600015156006600083815260200190815260200160002060030160009054906101000a900460ff16151514610870576040517f08c379a00000000000000000000000000000000000000000000000000000000081526004016108679061156e565b60405180910390fd5b6001600560003373ffffffffffffffffffffffffffffffffffffffff1673ffffffffffffffffffffffffffffffffffffffff168152602001908152602001600020600083815260200190815260200160002060006101000a81548160ff0219169083151502179055507fc4ae614d3ef21abaf9af0fd8dff1fd0edeaa8e7ec5a8572873b1c2259589d3c6816006600084815260200190815260200160002060020154336040516109229392919061158e565b60405180910390a16001600660008381526020019081526020016000206002016000828254610951919061112e565b92505081905550600154600660008381526020019081526020016000206002015414156109b95761098181610c4e565b7fcbcb6784f05df70a3bf56123bc37614d5bb33576aff17cce9e2d9db026d182e6816040516109b09190610de9565b60405180910390a15b50565b606060011515600360003373ffffffffffffffffffffffffffffffffffffffff1673ffffffffffffffffffffffffffffffffffffffff16815260200190815260200160002060009054906101000a900460ff16151514610a51576040517f08c379a0000000000000000000000000000000000000000000000000000000008152600401610a489061144a565b60405180910390fd5b600060025467ffffffffffffffff811115610a6f57610a6e6115c5565b5b604051908082528060200260200182016040528015610aa857816020015b610a95610d6c565b815260200190600190039081610a8d5790505b50905060005b600254811015610c4657600015156006600083815260200190815260200160002060030160009054906101000a900460ff1615151415610c33576040518060c001604052806006600084815260200190815260200160002060000160009054906101000a900473ffffffffffffffffffffffffffffffffffffffff1673ffffffffffffffffffffffffffffffffffffffff16815260200160066000848152602001908152602001600020600101548152602001600660008481526020019081526020016000206002015481526020016006600084815260200190815260200160002060030160009054906101000a900460ff1615158152602001600660008481526020019081526020016000206004015481526020016006600084815260200190815260200160002060050160009054906101000a900473ffffffffffffffffffffffffffffffffffffffff1673ffffffffffffffffffffffffffffffffffffffff16815250828281518110610c2757610c266115f4565b5b60200260200101819052505b8080610c3e90611623565b915050610aae565b508091505090565b6006600082815260200190815260200160002060010154471015610ca7576040517f08c379a0000000000000000000000000000000000000000000000000000000008152600401610c9e906116de565b60405180910390fd5b60016006600083815260200190815260200160002060030160006101000a81548160ff0219169083151502179055506006600082815260200190815260200160002060000160009054906101000a900473ffffffffffffffffffffffffffffffffffffffff1673ffffffffffffffffffffffffffffffffffffffff166108fc60066000848152602001908152602001600020600101549081150290604051600060405180830381858888f19350505050158015610d68573d6000803e3d6000fd5b5050565b6040518060c00160405280600073ffffffffffffffffffffffffffffffffffffffff168152602001600081526020016000815260200160001515815260200160008152602001600073ffffffffffffffffffffffffffffffffffffffff1681525090565b6000819050919050565b610de381610dd0565b82525050565b6000602082019050610dfe6000830184610dda565b92915050565b600080fd5b600073ffffffffffffffffffffffffffffffffffffffff82169050919050565b6000610e3482610e09565b9050919050565b610e4481610e29565b8114610e4f57600080fd5b50565b600081359050610e6181610e3b565b92915050565b600060208284031215610e7d57610e7c610e04565b5b6000610e8b84828501610e52565b91505092915050565b6000610e9f82610e09565b9050919050565b610eaf81610e94565b8114610eba57600080fd5b50565b600081359050610ecc81610ea6565b92915050565b610edb81610dd0565b8114610ee657600080fd5b50565b600081359050610ef881610ed2565b92915050565b60008060408385031215610f1557610f14610e04565b5b6000610f2385828601610ebd565b9250506020610f3485828601610ee9565b9150509250929050565b600060208284031215610f5457610f53610e04565b5b6000610f6284828501610ee9565b91505092915050565b600081519050919050565b600082825260208201905092915050565b6000819050602082019050919050565b610fa081610e94565b82525050565b610faf81610dd0565b82525050565b60008115159050919050565b610fca81610fb5565b82525050565b610fd981610e29565b82525050565b60c082016000820151610ff56000850182610f97565b5060208201516110086020850182610fa6565b50604082015161101b6040850182610fa6565b50606082015161102e6060850182610fc1565b5060808201516110416080850182610fa6565b5060a082015161105460a0850182610fd0565b50505050565b60006110668383610fdf565b60c08301905092915050565b6000602082019050919050565b600061108a82610f6b565b6110948185610f76565b935061109f83610f87565b8060005b838110156110d05781516110b7888261105a565b97506110c283611072565b9250506001810190506110a3565b5085935050505092915050565b600060208201905081810360008301526110f7818461107f565b905092915050565b7f4e487b7100000000000000000000000000000000000000000000000000000000600052601160045260246000fd5b600061113982610dd0565b915061114483610dd0565b9250827fffffffffffffffffffffffffffffffffffffffffffffffffffffffffffffffff03821115611179576111786110ff565b5b828201905092915050565b600082825260208201905092915050565b7f596f75277265206e6f74207468652063726561746f72206f662074686973206360008201527f6f6e747261637400000000000000000000000000000000000000000000000000602082015250565b60006111f1602783611184565b91506111fc82611195565b604082019050919050565b60006020820190508181036000830152611220816111e4565b9050919050565b7f596f75277265206e6f74206120636f6e747269627574696e67206d656d62657260008201527f206f66206f757220736f63696574790000000000000000000000000000000000602082015250565b6000611283602f83611184565b915061128e82611227565b604082019050919050565b600060208201905081810360008301526112b281611276565b9050919050565b7f416d6f756e742072657175657374656420746f6f206c61726765000000000000600082015250565b60006112ef601a83611184565b91506112fa826112b9565b602082019050919050565b6000602082019050818103600083015261131e816112e2565b9050919050565b61132e81610e29565b82525050565b6000819050919050565b600061135961135461134f84610e09565b611334565b610e09565b9050919050565b600061136b8261133e565b9050919050565b600061137d82611360565b9050919050565b61138d81611372565b82525050565b60006080820190506113a86000830187610dda565b6113b56020830186610dda565b6113c26040830185611325565b6113cf6060830184611384565b95945050505050565b7f796f75277265206e6f7720616c6c6f77656420746f207573652074686973206660008201527f756e6374696f6e00000000000000000000000000000000000000000000000000602082015250565b6000611434602783611184565b915061143f826113d8565b604082019050919050565b6000602082019050818103600083015261146381611427565b9050919050565b7f596f7527766520616c726561647920617070726f76656420746869732074726160008201527f6e73616374696f6e000000000000000000000000000000000000000000000000602082015250565b60006114c6602883611184565b91506114d18261146a565b604082019050919050565b600060208201905081810360008301526114f5816114b9565b9050919050565b7f54686973207472616e73616374696f6e732068617320616c726561647920626560008201527f656e2073656e7400000000000000000000000000000000000000000000000000602082015250565b6000611558602783611184565b9150611563826114fc565b604082019050919050565b600060208201905081810360008301526115878161154b565b9050919050565b60006060820190506115a36000830186610dda565b6115b06020830185610dda565b6115bd6040830184611325565b949350505050565b7f4e487b7100000000000000000000000000000000000000000000000000000000600052604160045260246000fd5b7f4e487b7100000000000000000000000000000000000000000000000000000000600052603260045260246000fd5b600061162e82610dd0565b91507fffffffffffffffffffffffffffffffffffffffffffffffffffffffffffffffff821415611661576116606110ff565b5b600182019050919050565b7f576520646f6e2774206861766520656e6f75676820746f205472616e7366657260008201527f206d6f6e6579203a2f0000000000000000000000000000000000000000000000602082015250565b60006116c8602983611184565b91506116d38261166c565b604082019050919050565b600060208201905081810360008301526116f7816116bb565b905091905056fea2646970667358221220d520b67a35ef4446c44929e6f1f1dac4b65eb0eeb7c4a42be455868578c7551b64736f6c634300080b0033",
  "immutableReferences": {},
  "source": "// SPDX-License-Identifier: GPL-3.0\npragma solidity >=0.4.22 <0.9.0;\npragma abicoder v2;\n\n//Multi-sig Wallet\n//Creator: Achilles Armendariz\n\ncontract myContract{\n\n    //owners should be able to vote to delete a request transfer so that it doesn't congest system\n\n    //I should create another sturct and be specific with the funcding is, example on solididty.lang\n    //for structs\n\n    //this contract should also practice inheritance where I see fit.\n\n    address creator;\n    uint approvalCountReq;\n    uint transactionNumber;\n    // keep track of the numver of created\n    //transfer requests\n\n    mapping(address => bool) isOwner; //Verify that the client address is owner\n    mapping(address =>uint) balance; //Keep track of the balances of each address interacting w/ SC\n\n    //made double mapping so you can query for only\n    //approved transcations\n    //mapping(uint => mapping(bool=> Transfers)) transactionRequests;\n    //Transfers[] public transfersNotApproved;\n\n    //in these two mappings, I decided to use a state variable as the key\n    //value for the map, to eliminate ambigous transaction id's\n\n    //keep track of who's beeb approved that can\n    //approve\n    mapping(address => mapping(uint=> bool)) approvals;\n    mapping(uint => Transfers) transactions;\n    //decided to get rid of mapping because only approvers\n    //should be able to approve, select indiv, in a array of struct\n\n    //creating a constructor that initializes the states of\n    //the SC once it's deployed onto mainnet\n\n    event transferRequestCreated(uint _id, uint _amount, address initiator, address recipient);\n    event approvalReceived(uint id, uint approvals, address approver);\n    event transferApproved(uint id);\n\n    constructor(){\n        isOwner[msg.sender]=true;\n        creator = msg.sender;\n    }\n\n    /*\n    creating an object, or \"Struct\", that can recieve a payable\n    address, with a stated value that they'd like to send to said\n    address. Once this new transfer object is created we'll initiate\n    approvals to 0 and transaction number to the last one avaible.\n    */\n    struct Transfers{\n        address payable payTo;\n        uint value;\n        uint approvalAccumulated;\n        bool sent;\n        uint _transactionNumber;\n        address creator;\n\n}\n\n    /*\n    function that runs before my actual function, this will allow me\n    to reduce some redundant code that i'd like to see it multiple functions.\n\n    this onlyOwner requires that before function is used, you're one of the\n    privileged to use it.\n    */\n    modifier onlyOwner{\n       require(isOwner[msg.sender] == true, \"you're now allowed to use this function\");\n        _;\n   }\n\n    //Only the creator of the smart contract who launced it onto mainnet\n    //can add more owners. These owner's can approve transaction requests.\n    function addOwner(address member)public{\n        require(msg.sender == creator, \"You're not the creator of this contract\");\n        isOwner[member]=true;\n        approvalCountReq+=1;\n\n    }\n    function NumOfOwners()public view returns(uint){\n        uint NumOwners;\n        NumOwners = approvalCountReq+1;\n        return NumOwners;\n    }\n    //This function will allow anyone to deposit money,\n    //it doesn't matter if you're a owner or a creator, anyone.\n    function deposit()public payable returns(uint){\n        balance[msg.sender] += msg.value;\n        return balance[msg.sender];\n    }\n\n    //This function will only be something that is viewable\n    // the client wants balance of they're account\n    function getMyBalance() public view returns(uint){\n        return balance[msg.sender];\n    }\n\n    function getSCBalance() onlyOwner public view returns(uint){\n        return address(this).balance;\n    }\n\n    //To be determined if this creates what I want to create and\n    // make sure that we are creating a new transaction memory for\n    //each new request.\n    function createTransferReq(address payable sendTo, uint valueToSend)public returns(uint){\n        require(balance[msg.sender]>=1, \"You're not a contributing member of our society\");\n        require(address(this).balance >= valueToSend, \"Amount requested too large\");\n       // transactionRequests[transactionNumber][false] = Transfers memory transaction;\n\n        //this is a mapping storage allocation\n\n\n        //thinking about creating a new Transfer object that stored\n        //in a state variable array of Transfer. This would keep track\n        //of non-approved transactions left, while map has entire record.\n        //I'd do this because it's each to return an array and pop items\n        //I'm personally thinking that thse two storage type need to mirror\n        // each other indices. And have the necessary require().\n        //transfersNotApproved.push(Transfers(sendTo, valueToSend, 0, transactionNumber, msg.sender));\n        Transfers storage newRequest = transactions[transactionNumber];\n        newRequest.payTo = sendTo;\n        newRequest.value = valueToSend;\n        newRequest.approvalAccumulated=0;\n        newRequest.sent = false;\n        newRequest._transactionNumber = transactionNumber;\n        newRequest.creator = msg.sender;\n\n        emit transferRequestCreated(newRequest._transactionNumber, newRequest.value, newRequest.creator, newRequest.payTo);\n        uint oldTxNum = transactionNumber;\n        transactionNumber +=1;\n\n        return oldTxNum;\n    }\n\n    function approveRequest(uint id)public onlyOwner {\n    require(approvals[msg.sender][id] == false, \"You've already approved this transaction\");\n    require(transactions[id].sent ==false, \"This transactions has already been sent\");\n      approvals[msg.sender][id] = true;\n      emit approvalReceived(id, transactions[id].approvalAccumulated, msg.sender);\n      transactions[id].approvalAccumulated += 1;\n      if(transactions[id].approvalAccumulated == approvalCountReq){\n\n          sendMoney(id);\n          emit transferApproved(id);\n          //print out a message like \"the dao has sent he money and now has ..remaining\"\n      }\n    }\n\n    function sendMoney(uint id)private{\n        require(address(this).balance >= transactions[id].value, \"We don't have enough to Transfer money :/\");\n        transactions[id].sent = true;\n        transactions[id].payTo.transfer(transactions[id].value);\n\n    }\n\n    function getNonApprovedTransactions()public view onlyOwner returns(Transfers[] memory){\n        Transfers[] memory nonApproved = new Transfers[](transactionNumber);\n        for(uint i = 0; i<transactionNumber; i++){\n            if(transactions[i].sent == false){\n                nonApproved[i]=Transfers(transactions[i].payTo, transactions[i].value, transactions[i].approvalAccumulated,\n                transactions[i].sent, transactions[i]._transactionNumber, transactions[i].creator);\n            }\n        }\n\n        return nonApproved;\n\n   }\n\n\n\n\n\n}\n",
  "sourcePath": "/Users/DAO/contracts/multiSigWallet.sol",
  "compiler": {
    "name": "solc",
    "version": "0.8.11+commit.d7f03943.Emscripten.clang"
  },
  "schemaVersion": "3.4.5",
  "updatedAt": "2022-03-08T01:28:38.037Z",
  "networkType": "ethereum",
  "devdoc": {
    "kind": "dev",
    "methods": {},
    "version": 1
  },
  "userdoc": {
    "kind": "user",
    "methods": {},
    "version": 1
  }
}